:020000040800F2
:100000003005002065010008E31A0008C519000842
:10001000E11A00084F020008511E0008000000000D
:10002000000000000000000000000000071B0008A6
:100030001D04000800000000051B0008091B000843
:100040007F0100087F0100087F0100087F01000890
:100050007F0100087F0100087F0100087F01000880
:100060007F0100087F0100087F0100087F01000870
:100070007F0100087F0100087F0100087F01000860
:100080007F0100087F0100087F0100087F01000850
:10009000510200087F0100085D0200087F0100088E
:1000A0007F0100087F0100087F0100087F01000830
:1000B000ED1B00087F0100087F0100087F01000898
:1000C0007F0100087F0100087F0100087F01000810
:1000D0007F0100087F0100087F0100087F01000800
:1000E0007F0100087F0100087F0100080000000078
:1000F0000000000000000000000000000000000000
:1001000000000000000000007F0100087F010008DF
:100110007F0100087F0100087F0100087F010008BF
:100120007F0100087F0100087F0100087F010008AF
:100130007F0100087F0100087F0100087F0100089F
:100140007F0100087F0100087F0100087F0100088F
:10015000DFF80CD000F05AF800480047A52100084D
:10016000300500200648804706480047FEE7FEE7C6
:10017000FEE7FEE7FEE7FEE7FEE7FEE7FEE7FEE757
:10018000991B000851010008202A04DB203A21FABB
:1001900002F00021704721FA02F3D040C2F12002A0
:1001A00091400843194670472DE9F05F054600204D
:1001B00092469B4688460646814640241BE02846D8
:1001C000414647462246FFF7DFFF53465A46C01ACC
:1001D000914110D311461846224600F029F82D1AF5
:1001E00067EB01084F4622460120002100F020F86D
:1001F00017EB00094E41201EA4F10104DFDC484644
:1002000031462A464346BDE8F09F0000064C074DA4
:1002100006E0E06840F0010394E8070098471034D6
:10022000AC42F6D3FFF798FFB4220008D4220008AE
:10023000202A04DB203A00FA02F1002070479140A6
:10024000C2F1200320FA03F3194390407047FEE700
:10025000014800F05FB9000018000020014800F0DC
:1002600059B900001800002010B5002958D0826B41
:100270004FF4D873046803EB0113E45814F004043A
:1002800094600468E4584DD0E40854600468E3586E
:1002900003F00203D3604FF4DA73046803EB011335
:1002A000E45804F00F04146111620468E358C3F3C6
:1002B0000723D3614FF4DC73046803EB0113E458A4
:1002C00014750468E458240A54750468E458240C2E
:1002D00094750468E3581B0ED3754FF4DE730468FD
:1002E00003EB0113E45814760468E458240A5476A6
:1002F0000468E458240C94760468E3581B0ED37603
:100300000368202289B11A610268536923F05003FF
:10031000536190F83C20222A0DD0322A0BD00FE0F6
:10032000426BA5E7640D1460B0E7DA6002685369B8
:1003300023F00A03ECE70268536923F40F43536187
:1003400012220123002990F83C1006D0522915D022
:10035000622916D0722906D115E042290ED06229F1
:1003600008D0722908D080F83C3000BF00F022FB92
:10037000002010BD322107E0522105E080F83C202A
:10038000F4E7222100E0422180F83C10EEE7000073
:1003900000B50C498BB00A4848630E200121CDE915
:1003A00008100020029000900190049003900690A5
:1003B000079105906946034800F032F80BB000BD84
:1003C000F8000020180000201348124940F22312C0
:1003D00001630A60026B00219160026BD160026BC5
:1003E00008211161026B43211175026B4121517586
:1003F000026B4E219175026B2021D175026B542145
:100400001176036B45225A76036B53229A76006B62
:10041000C1767047DC000020180000207047000003
:10042000F0B50C7D012303FA04F20468D4F80052FD
:100430004E6A25F47C5503EB06231D43C4F8005295
:100440000368D3F81C429443C3F81C424FF4107362
:10045000CD691C1DBDB90568D5F80C629643C5F879
:100460000C628E894D684F6966F31F45066803EB81
:10047000C707F5510E890D684F6966F31F45066879
:1004800004EBC707F551CD69012D17D10568D5F8E3
:100490000C621643C5F80C620E884D684F6966F30E
:1004A0001F45066803EBC703F5500D89CB684E69FD
:1004B00065F31F43056804EBC6042B518B69002BC1
:1004C0000368D3F8044211D054EA0204C3F804428A
:1004D0000B69002B0368D3F8144209D054EA0204D4
:1004E000C3F81442096A012904D009E09443EDE7F6
:1004F0009443F5E70168D1F81C321343C1F81C326C
:100500000068D0F8001221F00101C0F800120020AC
:10051000F0BD70472DE9F041044600680026C1682F
:10052000C1F300134169C1F3C002102113B10AB134
:100530004E01C160206802694369C2F30012C3F32F
:1005400080131AB113B146F48066016121684869CD
:100550004FF00105C043C0074ED18A6876489043EA
:1005600023D000208B68754A9A4320D000228F68E0
:10057000734BBB431DD00023104318433CD0886805
:100580008A68C0F340008B68C2F3402203F0010385
:100590001043184329D04A69204622F001024A61DB
:1005A00094F83C10122906D00AE00120DAE7012273
:1005B000DDE70123E0E701684A6922F40F424A615E
:1005C00090F83C10422908D0522908D0722908D04E
:1005D00080F83C5000F0F4FA09E0222102E03221D8
:1005E00000E0622180F83C10F4E746F400662068E1
:1005F0008168544A114381602168C868496910F0D4
:10060000030FC1F3400104D019B100212046FFF7C8
:100610002BFE21680869496910F0030FC1F300112E
:1006200004D019B101212046FFF71EFE206C304393
:10063000206420688169426911F0010F4369C2F3A7
:100640000022C3F3C03305D022B11BB1216C41F0AD
:10065000010121648169C1F340034169C1F3402272
:100660004169C1F3C0312BB122B119B1216C41F004
:10067000020121648169C1F3800341694269C1F3C8
:100680008021C2F3C0322BB121B11AB1216C41F0EB
:1006900004012164816911F0700F08D000224169C2
:1006A000C1F3C0234169C1F3C03112B121E001227D
:1006B000F5E7F3B1E9B1816901F0700140292FD06C
:1006C00006DC102909D020290BD030290DD123E0D8
:1006D000502929D0602908D12AE0216C41F0080175
:1006E00002E0216C41F010012164816921F0700168
:1006F0008161206C00280DD021680420486084F8B6
:100700003C502068416948F65B7291434161204644
:10071000FFF7FFFEBDE8F081216C41F02001E3E727
:10072000216C41F04001DFE7216C41F08001DBE703
:10073000216C41F48071D7E701000004000100083A
:1007400000000110090501002DE9F04104004FF0FF
:10075000000504D094F83C00002618B107E0012001
:10076000BDE8F08184F83D60204600F083F8022067
:1007700084F83C002068016821F0020101602068D3
:10078000016841F00101016000F012FB07464FF0E3
:10079000030804E000F00CFBC01B0A2853D82068B3
:1007A0004068C007F6D021684868C00758D0A069E3
:1007B000012801D145F08005E06901282FD025F0FE
:1007C0004000226A012A2DD020F02000626A012A0E
:1007D0002BD020F01000A26A012A29D020F00800B6
:1007E000E26A012A27D020F004000A6822F0FC0205
:1007F00002430A60D4E902010843D4E90412114318
:1008000008436168491E08432168C861206801687F
:1008100021F00101016000F0CBFA054618E045F037
:100820004000CEE740F02000D0E740F01000D2E7D3
:1008300040F00800D4E740F00400D6E700F0B8FA32
:10084000401B0A2804D904F83C8F0320667087E710
:1008500020684068C007F1D120684068C00703D015
:10086000042084F83C007AE72664012084F83C00E8
:10087000002075E710B500681D4986B0884234D164
:100880001C48C16941F00071C161C0691A4C00F097
:1008900000700490012000900020019002906946B1
:1008A000204600F09DF90221032000910191039060
:1008B0006946204600F094F91048416821F4C0418F
:1008C0004160416841F4C04141600022012114208F
:1008D00000F0F0FA142000F0E1FA00221146162090
:1008E00000F0E8FA162000F0D9FA06B010BD0000BA
:1008F000006400400010024000140140000001406C
:1009000030B511B1012925D010E090F83C20222A01
:1009100028D090F83C20422A24D000BF90F83C20F8
:10092000622A1FD090F83C20722A1BD090F83D20FC
:10093000012A17D0012280F83D20622290F83C4025
:10094000722389B1122C19D0222C18D0422C19D024
:10095000322214E090F83C20322A03D090F83C2058
:10096000522ADBD1022030BD122C05D0322C06D009
:10097000522C07D0222202E0422200E0522280F8CC
:100980003C2001E080F83C300022026403685C698E
:1009900048F601752C435C6180F83D200068002911
:1009A000416904D041F050014161002030BD41F067
:1009B0000A01F9E700680B49884211D10A490B4A3C
:1009C000486B096B00680B6809499842097801D0A7
:1009D00040F2555022F8110000210348FFF790BF64
:1009E0007047000000640040180000201C01002037
:1009F000040000202DE9F05F0E4601680446886877
:100A0000400105D48868000102D48868C0006FD511
:100A100094F83D0001280CD0012784F83D7094F82B
:100A20003C00222808D0322808D062280ED012209C
:100A300005E00220BDE8F09F422000E0522084F84B
:100A40003C008868400103D5002507E07220F6E7E6
:100A50008868000101D5012500E002254FF4C0702F
:100A600000EB05100A5802F001020A50216B8A6857
:100A7000EAB3D4F800C05CF800301343CA68496890
:100A800042EAC1010B434CF80030216B0A7C02F0B2
:100A90000F020A614FF4C271226801EB051153582D
:100AA00023F00F03535022685358D4F830C0DCF8B9
:100AB00010C043EA0C035350216B4FF4C47303EB93
:100AC00005130A7DD1F8151042EA01222168CA50A7
:100AD000216B4FF4C67303EB05130A7ED1F819108E
:100AE00042EA01222168CA5021680A5801E00DE05B
:100AF0005AE042F001020A5000F05AF981464FF0E4
:100B00000008DFF8B0A0DFF8B0B026E02268135884
:100B1000D1F80CC0098843EA0C0343EA4151115053
:100B2000B3E7701C19D02EB100F042F9A0EB090018
:100B3000B04212D9032084F83C004DB1012D09D0F8
:100B40004FF400002168886084F83D80032071E73D
:100B50008020F7E74FF40040F4E7ADB12068012DA5
:100B6000816816D0154888430028DAD194F83C00F3
:100B7000422811D0522811D0722813D084F83C702A
:100B800084F83D80002055E7206881682AEA01004A
:100B9000EAE72BEA0100E7E7222000E0322084F8B0
:100BA0003C00EDE76220FAE7042084F83C000120D5
:100BB00040E70000010000040001000800000110EF
:100BC000704731B500F0F4F8009C0546601C00D079
:100BD000641C00F0EDF8401BA042FAD338BD0000C1
:100BE0002DE9F84FDFF890A100220AF1040B14461A
:100BF00001274FF00F090BF1040E00BF0B6807FA35
:100C000004F52B40AB4274D1DFF870C14E68A6EBFF
:100C10000C0866452BD00DDC032E34D005DC36B332
:100C2000012E19D0022E2FD11BE0112E16D0122E1C
:100C30002AD119E0B8F5881F19D006DCB8F5803F35
:100C400015D0B8F5801F1FD111E0B8F5001F0ED0E8
:100C5000B8F5041F18D10AE0CA6815E0CA68121D69
:100C600012E0CA6808320FE0CA680C320CE08A68E9
:100C70002AB1012A4FF0080203D0456104E00422A2
:100C800002E0056100E00022FF2B01D8064601E0EA
:100C900000F104064FEA840501D9A5F12005D6F834
:100CA00000C009FA05F82CEA080C02FA05F54CEA2E
:100CB000050CC6F800C04D68ED0057D5304DAE6943
:100CC00046F00106AE61AD6924F0030605F00105AA
:100CD00000952C4D06EB050CDCF80850A6074FEAF2
:100CE000167809FA08F6B543274EB04202D100261D
:100CF00010E03BE0254EB04201D101260AE0244E2F
:100D0000B04201D1022605E0224EB04201D10326B5
:100D100000E0042606FA08F62E43CCF808604D6879
:100D2000DAF80060ED03554601D51E4300E09E430E
:100D30002E604D68DBF80060AD035D4601D51E43B3
:100D400000E09E432E604D68DEF80060ED027546BF
:100D500001D51E4300E09E432E604D68AD020E4D4E
:100D60002E6801D51E4300E09E432E60641C102CAB
:100D7000FFF444AFBDE8F88F0004014000001110FB
:100D8000001002400000014000080140000C01403A
:100D900000100140001401400C040140C2684A40A8
:100DA000C26070470AB1016170470904FBE70000A7
:100DB00001480068704700001000002002480168E8
:100DC000491C01607047000010000020074810B562
:100DD000016841F010010160032000F08BF8002051
:100DE00000F006F800F018F8002010BD00200240C6
:100DF00010B5044607484FF47A710068B0FBF1F073
:100E000000F09FFB00222146501E00F053F8002006
:100E100010BD0000000000201E4808B5816941F0A7
:100E200001018161806900F001000090032000F061
:100E300061F8002211466FF00B0000F03BF8002231
:100E400011466FF00A0000F035F8002211466FF0ED
:100E5000090000F02FF800221146501F00F02AF878
:100E600000221146101F00F025F800221146901EA6
:100E700000F020F800221146501E00F01BF8064832
:100E8000416821F0E0614160416841F000714160DA
:100E900008BD0000001002400000014000F01F02E9
:100EA000012191404009800000F1E020C0F80011CC
:100EB00070470000F0B40E4B1B680C46C3F30223CE
:100EC000C3F10705042D00D90425191D072901D2F6
:100ED000002300E0DB1E012606FA05F1491E214031
:100EE00099409E40761E16403143F0BC00F0FABD9A
:100EF0000CED00E0064900F0070208684FF6FF031A
:100F0000184040EA0220034A10430860704700007E
:100F10000CED00E00000FA052DE9F047DFF83C8118
:100F200005460E46D8F8000000F00700B0420CD28B
:100F3000D8F8001021F007013143C8F80010D8F8A4
:100F4000000000F00700B04263D12878444C8007CD
:100F500005D56068A96820F0F00008436060287833
:100F6000C00745D06868012816D02168022816D02D
:100F7000890700294DDA616821F0030101436160AE
:100F8000FFF716FF6968074641F2883001290FD044
:100F90000229814619D027E021688903E9E7890100
:100FA000E7E700BFFFF704FFC11B494501D918E07F
:100FB00081466068C0F381000128F3D118E000BFCA
:100FC000FFF7F6FEC11B49450BD86068C0F38100EE
:100FD0000228F5D10CE000BFFFF7EAFEC11B49452E
:100FE00002D90320BDE8F087606810F00C0FF3D140
:100FF000D8F80010404601F00701B1420BD9016852
:1010000021F0070131430160006800F00700B042A1
:1010100001D00120E6E72878400705D56068E96837
:1010200020F4E060084360602878000706D5606817
:10103000296920F4605040EAC100606000F03CF88B
:101040006168084AC1F30311515CC8400649086051
:101050000020FFF7CDFE0020C4E700000020024082
:10106000001002409C220008000000200148006897
:1010700070470000000000200448054900684968E6
:10108000044AC1F30221515CC840704700000020AF
:1010900000100240AC220008044805490068496875
:1010A000044AC1F3C221515CC840704700000020CF
:1010B00000100240AC22000810B51DA288B00FCA73
:1010C00004AC84E80F001EA30FCB8DE80F0020496D
:1010D0004B68204803F00C02042A02D0082A02D0F0
:1010E0001D4808B010BD04AAC3F38344DB03125D9E
:1010F0001BD5CB6ACC6A03F00F031DF80330E40361
:101100000AD5CC6AC96AC4F30314641CB0FBF4F0BA
:10111000C1F30321891C4843B0FBF3F09DF81D1077
:1011200050439142DDD14008DBE70C485043D8E7FB
:10113000000004050607080900000000000D00007B
:101140000102030405060708090A0B0C0D0E0F1017
:101150000010024040787D0100127A0000093D0035
:101160002DE9F84F04460078EA4DC00748D068687A
:10117000C0F38100012807D06868C0F3810002280D
:1011800009D16868C00306D52868800338D5A068EF
:1011900000286FD034E0A068B0F5803F0BD010B1CC
:1011A000B0F5A02F11D0286820F48030286028687E
:1011B00020F4802002E0286840F480302860A06895
:1011C00088B1FFF7F5FD064609E0286840F4802065
:1011D0002860F0E7FFF7ECFD801B642878D82868CA
:1011E0008003F7D50CE0FFF7E3FD064605E000BFFE
:1011F000FFF7DEFD801B6428F0D828688003F7D451
:101200002078C54E80074FF001094FF000073CD50C
:10121000686810F00C0F07D06868C0F381000228DE
:1012200009D16868C00306D42868800715D56069AD
:1012300001281FD111E06069B8B1C6F80090FFF72E
:10124000B7FD804606E000BFFFF7B2FDA0EB080047
:101250000228C3D828688007F6D52868A16920F03D
:10126000F80040EAC10028600FE03760FFF7A0FDFA
:10127000804607E02DE100BFFFF79AFDA0EB0800D4
:101280000228ABD828688007F6D4207800072ED52E
:10129000A248E169E9B1C0F80090FFF789FD8046F6
:1012A00006E000BFFFF784FDA0EB0800022895D8F8
:1012B000686A8007F6D59A484FF4FA510068B0FB87
:1012C000F1F0009000BF0098411E0091FAD20EE0AC
:1012D000B0E00760FFF76CFD804605E0FFF768FDB2
:1012E000A0EB0800022887D8686A8007F6D4207827
:1012F000400763D5E8694FF00008C00009D4E869E9
:1013000040F08050E861E8694FF0010800F080503B
:10131000009084480168C90512D40168834641F4ED
:1013200080710160FFF744FD824605E0FFF740FD54
:10133000A0EB0A0064287DD8DBF80000C005F5D5D5
:10134000206901280AD008B1052813D0286A20F0A6
:1013500001002862286A20F0040002E0286A40F0B8
:1013600001002862206941F2883B98B1FFF720FD17
:1013700082460BE0286A40F004002862EEE700BFD6
:10138000FFF716FDA0EB0A01594553D8286A8007DC
:10139000F6D50CE0FFF70CFD824605E0FFF708FDEF
:1013A000A0EB0A01594545D8286A8007F6D4B8F160
:1013B000000F03D0E86920F08050E861E06AD0B304
:1013C0006968C90307D56968C1F38101022902D19F
:1013D000E96AC9037DD4022808D0E86A20F4803085
:1013E000E862B766FFF7E4FC80463BE02868C0008F
:1013F00005D5E86A616B00F0F000884269D1B766F4
:10140000FFF7D6FC804605E0FFF7D2FCA0EB080012
:10141000642874D828680001F6D4E86A616B20F06B
:10142000F0000843E862E86A216B20F4706008432A
:10143000E86201E063E018E0C6F86890FFF7B8FCE6
:10144000804605E0FFF7B4FCA0EB0800642856D8FE
:1014500028680001F6D508E0FFF7AAFCA0EB080019
:1014600064284CD828680001F6D4206A90B36968D3
:10147000C1F3810102294AD00228376603D0FFF761
:1014800097FC04463EE0FFF793FC074605E000BFEB
:10149000FFF78EFCC01B022831D828688001F7D4E2
:1014A000606AB0F5803F09D1E86A61680843E86284
:1014B000E86AE16820F00F000843E862D4E9090116
:1014C0000843696821F4741108436860C6F86090A5
:1014D00001E01CE019E0FFF76BFC044605E000BFEB
:1014E000FFF766FC001B022809D828688001F7D5A1
:1014F0000BE000BFFFF75CFC001B022802D90320B1
:10150000BDE8F88F28688001F4D40020F8E70120B6
:10151000F6E7000000100240000042428004424210
:1015200000000020007000404FF0E021042808690E
:1015300003D020F004000861704740F00400FAE78F
:10154000704710B5401EB0F1807F01D3012010BD5F
:101550004FF0E02460610F21601700F0C3FA002013
:10156000A06107202061002010BD10B5FFF7E8FF43
:1015700010BD7047704730B590F83C20012A20D04C
:10158000012280F83C20022380F83D3003685C682B
:1015900024F070045C6003685C680D682C435C6038
:1015A00003689C6824F080049C6003689C68496818
:1015B0000C439C6080F83D20002180F83C100846D8
:1015C00030BD022030BD10B5040003D094F83D00BA
:1015D00010B107E0012010BD002084F83C00204637
:1015E00000F00CF8022084F83D00211D206800F076
:1015F00003FB012084F83D00002010BD08B5006801
:10160000B0F1804F12D10A48C16941F00101C161B6
:10161000C069002200F00100009011461C20FFF775
:1016200049FCBDE808401C20FFF738BC08BD00009D
:10163000001002400168CA6842F00102CA600068F6
:10164000016841F0010101600020704770B5044657
:1016500090F83C00012817D0012584F83C50022066
:1016600084F83D002068826822F0770222F47F42ED
:1016700082600868502837D00DDC202859D005DC5E
:1016800088B3102841D151E0022070BD302853D0DA
:1016900040283AD13FE060282ED070280BD0B0F51A
:1016A000805F03D0B0F5005F2FD110E02068816823
:1016B00021F0070115E0CB68D1E90121206800F095
:1016C000D9FA2168886840F0770088601DE0CB680F
:1016D000D1E90121206800F0CDFA2068816841F449
:1016E0008041816011E01EE0CA684968206800F00E
:1016F000D3FA5021206806E0CA684968206800F0E3
:10170000DCFA6021206800F0BFFA84F83D50002028
:1017100084F83C0070BDCA684968206800F0BCFAD3
:1017200040212068EFE700212068ECE710212068C5
:10173000E9E720212068E6E730212068E3E77047E9
:1017400070B50446006801694FF00005C943890778
:1017500015D4C168C943890711D4E91E016101206C
:101760002077206880698007204602D0FFF7E7FFD6
:1017700004E000F098F8204600F096F825772068FD
:101780000169C943490717D4C168C943490713D43C
:101790006FF004010161022020772068806910F455
:1017A000407F204602D0FFF7CAFF04E000F07BF83C
:1017B000204600F079F8257720680169C9430907B8
:1017C00016D4C168C943090712D46FF0080101613A
:1017D000042020772068C0698007204602D0FFF7E8
:1017E000AEFF04E000F05FF8204600F05DF82577DA
:1017F00020680169C943C90617D4C168C943C9062D
:1018000013D46FF010010161082020772068C069AF
:1018100010F4407F204602D0FFF791FF04E000F073
:1018200042F8204600F040F8257720680169C94356
:10183000C90708D1C168C943C90704D1891E01611C
:10184000204600F033F820680169C943090609D42D
:10185000C168C943090605D46FF0800101612046C3
:10186000FFF787FE20680169C943490609D4C168AA
:10187000C943490605D46FF040010161204600F0DC
:1018800037F820680169C94389060BD4C168C94388
:10189000890607D46FF0200101612046BDE8704041
:1018A000FFF768BE70BD70477047000070B50068F4
:1018B000B0F1804F0CD1074D002400BF35F8142043
:1018C000611C05A000F0C6FA641CE4B20A2CF5D332
:1018D00070BD00001C0100200D0A546865206C6971
:1018E00076652025642049442069732025780D0001
:1018F000704770B5040004D094F83900002510B189
:1019000006E0012070BD84F83850204600F022F82F
:10191000242084F839002068C16821F40051C16096
:10192000204600F0DDF92068016921F49041016151
:101930002068416921F02A0141612068C16841F4B1
:101940000051C160E563202084F8390084F83A0032
:10195000002070BD10B50068164986B0884226D1B7
:101960001548C16941F48021C161C069134C00F47C
:10197000802004904FF480600090022001900320AA
:10198000039069462046FFF72BF90021E014CDE9CA
:101990000001029169462046FFF722F90848416894
:1019A00021F030014160416841F01001416006B012
:1019B00010BD00000048004000100240001001402F
:1019C00000000140FEE700000E4810B50C49016020
:1019D0000621416000214FF480228160C0E903129A
:1019E0004FF4A002C0E90521C16101624162816238
:1019F000C162FEF7A9FE002800D0FEE710BD00007E
:101A000000640040180000201E4810B5816986B0AF
:101A100041F040018161816901F0400104918169D7
:101A200041F004018161816901F00401049181693F
:101A300041F010018161816901F010010491816917
:101A400041F02001816180690F4C00F0200004907A
:101A500000224FF400512046FFF7A4F901224FF471
:101A600040412046FFF79EF94FF46040009001206E
:101A700001900220039069462046FFF7B1F806B0B6
:101A800010BD0000001002400018014010B51348BE
:101A900086B04FF08041016041F61F410024C0E94B
:101AA000011442F21071C0E903148461FFF78BFD49
:101AB00000B1FEE74FF48050009069460748FFF7F9
:101AC000C5FD00B1FEE7049404A904480594FFF79E
:101AD00052FD002800D0FEE706B010BD5C000020DB
:101AE000FEE770470907090E002806DA00F00F002C
:101AF00000F1E02080F8141D704700F1E02080F82C
:101B0000001470477047704710B5FFF757F9BDE8EC
:101B10001040FFF72ABD000030B593B0012528041E
:101B20000421CDE902010224CDE90840009501908D
:101B300005954FF4E010CDE90A044FF4C0600C9015
:101B400040200D906846FFF70BFB00B1FEE70F2029
:101B5000CDE90E0400204FF48061CDE91001129010
:101B600002210EA8FFF7D8F900B1FEE7FFF77EFAD1
:101B70004FF47A71B0FBF1F0FFF7E3FC0420FFF7BC
:101B8000D3FC0448056700221146501EFFF792F966
:101B900013B030BD000042421048016841F001011D
:101BA000016041680E4A1140416001680D4A1140D0
:101BB0000160016821F480210160416821F4FE0187
:101BC0004160016821F0A05101604FF47F01816004
:101BD0000021C1620449C003086070470010024040
:101BE0000000FFF0FFFFF6FE08ED00E00148FFF700
:101BF000A7BD00005C000020F0B50268194B1A4C2C
:101C00001A4D1B4E4FF08047984207D0B84205D07E
:101C1000A04203D0A84201D0B04204D122F0700CFF
:101C20004A6842EA0C02984207D0B84205D0A04266
:101C300003D0A84201D0B04203D122F44074CA6854
:101C4000224322F080044A69224302608A68C26209
:101C50000A688262984201D10969016301214161E8
:101C6000F0BD0000002C01400004004000080040CE
:101C7000000C004010B5846842EA032224F47F443B
:101C80000A432243826010BD826822F070020A4338
:101C900042F007018160704710B5036A046A24F0BE
:101CA00001040462846924F0F00444EA021423F07D
:101CB0000A020A438461026210BD10B5036A23F070
:101CC000100303628369046A23F4704343EA023217
:101CD00024F0A00343EA01118261016210BD0000FB
:101CE0002DE9F041044600680169E26821F44051A1
:101CF000114301612169A0680843616908432168B3
:101D0000CA6841F20C639A430243CA602068416981
:101D1000A26921F44071114341614C492068642556
:101D2000322688423CD1FFF7B7F900EBC00101EB46
:101D3000001061688900B0FBF1F7FFF7ADF900EB27
:101D4000C00101EB00106168B0468900B0FBF1F002
:101D5000B0FBF5F06FF01801484307EB800106EB8C
:101D60000110B0FBF5F000F0F006FFF795F900EB7D
:101D7000C00101EB001061688900B0FBF1F0B0FB1D
:101D8000F5F006EB0016FFF787F900EBC00101EB59
:101D9000001061688900B0FBF1F7FFF77DF93BE0C7
:101DA000FFF76AF900EBC00101EB001061688900E0
:101DB000B0FBF1F7FFF760F900EBC00101EB001099
:101DC0006168B0468900B0FBF1F0B0FBF5F06FF050
:101DD0001801484307EB800106EB0110B0FBF5F05A
:101DE00000F0F006FFF748F900EBC00101EB00102E
:101DF00061688900B0FBF1F0B0FBF5F006EB00166E
:101E0000FFF73AF900EBC00101EB001061688900AF
:101E1000B0FBF1F7FFF730F900EBC00101EB001068
:101E200061688900B0FBF1F0B0FBF5F06FF01801CC
:101E3000484307EB800108EB0110B0FBF5F0216887
:101E400000F00F0030448860BDE8F08100380140A8
:101E5000FEE700000FB4054B10B503A9044A029831
:101E600000F018F810BC5DF814FB00008D2100088C
:101E70001400002002E008C8121F08C1002AFAD18D
:101E800070477047002001E001C1121F002AFBD1FA
:101E9000704700002DE9FF4F8DB09B460F4604466A
:101EA000002606E025280BD05A460F999047641C5F
:101EB000761C20780028F5D111B03046BDE8F08FAF
:101EC0000025A8460122984900E0054314F8013F87
:101ED000203B02FA03F00842F7D120782E2817D1D0
:101EE00014F8010F45F004052A280ED06FF02F02D8
:101EF0002078A0F1300109290AD808EB880102EB0B
:101F0000410100EB0108641CF2E757F8048B641CE4
:101F100020786C280DD004DC4C2812D06A2811D10E
:101F200004E074280DD07A280CD10AE045F400159D
:101F300007E0617845F48015814202D1641C05F503
:101F40008015641C2278692A45D008DC002AB3D0A9
:101F5000582A69D0632A10D0642A08D13BE0702A3D
:101F600067D0732A13D0752A5CD0782A5CD01046CB
:101F70005A460F999047761CD3E017F8040B8DF85A
:101F8000000000208DF80100E946012003E057F829
:101F9000049B4FF0FF3069074FF0000501D40AE0C1
:101FA0006D1C45450DDA8542FADB19F8051000294C
:101FB000F6D106E06D1C8542FCDB19F805100029FE
:101FC000F8D12E4404E019F8010B5A460F999047B6
:101FD0006D1EF8D2A5E00A200021CDE90801C5F365
:101FE000025002280DD001CFC117031E71F100036A
:101FF0000DDA4FF0000CD0EB0C006CEB01012D233F
:1020000008E0FF1D27F00707F7E80201EDE72B05C1
:1020100004D52B238DF8283001233BE0EB0739D082
:102020002023F7E70A2000E010200021CDE9080175
:1020300007E01020002145F00405CDE908014FF02C
:102040000808C5F3025002280FD001CF00214FF03D
:10205000000A2B071FD5702A0DD0DDE908C38CF0CC
:10206000100C5CEA030C0CD015E0FF1D27F00707ED
:10207000F7E80201EBE740228DF828204FF0010A33
:102080000BE050EA010306D030238DF828308DF89C
:10209000292002239A46582A04D024A20DF12009AF
:1020A0000B9209E026A2F9E7DDE90823FEF77CF8A8
:1020B0000B9B9B5C09F8013D50EA0102F4D1ADEBAA
:1020C000090020300890680701D44FF001080899F2
:1020D000884502DDA8EB010000E0002080460025D5
:1020E00006E00AA85A46405D0F9990476D1C761C81
:1020F0005545F6DB04E030205A460F999047761C90
:10210000B8F10001A8F10108F5DC05E019F8010BB0
:102110005A460F999047761C0899481E0890002946
:10212000F4DC641CC5E600000928010030313233BC
:102130003435363738396162636465660000000003
:1021400030313233343536373839414243444546ED
:10215000000000002DE9F0410B4D0F461646296B9B
:1021600000240860286B02610AE02A6B04F1140065
:10217000395D115414210448FEF73CFC641CE4B2A0
:10218000B442F2D3BDE8F0811800002004490A6887
:10219000506009680A68D2431206FBD470470000F9
:1021A0009C000020FEF712FEFFF7B6FCFFF72CFCA8
:1021B000FFF70AFC26482549002501604FF4165117
:1021C000C0E901150821C560C0E904518561C561F8
:1021D000FFF78FFB00B1FEE7FFF758FC00F054F863
:1021E00000F04CF800F03CF8194EDFF868801A4C0B
:1021F000DFF868A0843E40F266674FF400594FF460
:10220000FA7B657014490822891C6078FFF7A2FFE9
:1022100096F83C00012802D0217828F81170207827
:10222000401C20706078401CC0B260700A28E9D35E
:102230000748257000218438FEF762FB4946504666
:10224000FEF7ACFD5846FEF7BCFCDAE7004800405C
:102250009C0000201C010020040000200018014008
:1022600010B5FEF7B1F8FEF793F8BDE81040002175
:102270000148FEF745BB0000180000200148FFF7A9
:10228000D9B900005C00002003480068C16841F42F
:102290000051C160704700009C0000200000000059
:1022A0000000000001020304060708090000000006
:1022B00001020304D42200080000002018000000DE
:1022C000741E0008EC220008180000201805000009
:1022D000841E000800A24A040000534855205145BE
:0C22E0004521000000000000000000008C
:04000005080001519D
:00000001FF
