:020000040800F2
:10000000080A0020650100083B210008C71F0008FE
:1000100039210008D1010008E52500080000000092
:100020000000000000000000000000005F21000848
:1000300019040008000000005D210008612100088B
:100040007F0100087F0100087F0100087F01000890
:100050007F0100087F0100087F0100087F01000880
:100060007F0100087F0100087F0100087F01000870
:100070007F0100087F0100087F0100087F01000860
:100080007F0100080D0400087F0100087F010008BF
:10009000D50100087F010008E10100087F01000888
:1000A0007F0100087F0100087F0100087F01000830
:1000B000452200087F010008512200087F01000846
:1000C0007F0100087F0100087F0100087F01000810
:1000D0007F0100087F010008D92500087F01000882
:1000E0007F0100087F0100087F0100080000000078
:1000F0000000000000000000000000000000000000
:1001000000000000000000007F0100087F010008DF
:100110007F0100087F0100087F0100087F010008BF
:100120007F0100087F0100087F0100087F010008AF
:100130007F0100087F0100087F0100087F0100089F
:100140007F0100087F0100087F0100087F0100088F
:10015000DFF80CD000F02AF800480047B527000867
:10016000080A00200648804706480047FEE7FEE7E9
:10017000FEE7FEE7FEE7FEE7FEE7FEE7FEE7FEE757
:10018000F121000851010008D2B201E000F8012B72
:10019000491EFBD270470022F6E710B513460A4607
:1001A00004461946FFF7F0FF204610BD064C074DE8
:1001B00006E0E06840F0010394E807009847103437
:1001C000AC42F6D3FFF7C8FFD4280008F428000893
:1001D000FEE70000014800F09BB900001C00002071
:1001E000014800F095B900001C000020F0B521493D
:1001F00095B01F48486328216846FFF7CCFF0020D0
:100200004FEA0D0200F5007142F82010401C80B248
:100210000A28F7D3002101240F91CDE9101400988A
:100220000A254001CDE90A01009E40F2FF7308460D
:100230007FEA060732F82060401C7E40B6B23340A9
:1002400080B2A842F6D358010C900220CDE90D01EE
:100250000E20CDE912400AA9064800F0DFF8002878
:1002600003D04E2104A002F0BEF915B0F0BD00008D
:10027000C00500201C000020757365725F66696C04
:10028000655C757365725F63616E2E6300000000CC
:1002900010B5002958D0826B4FF4D873046803EB73
:1002A0000113E45814F0040494600468E4584DD039
:1002B000E40854600468E35803F00203D3604FF489
:1002C000DA73046803EB0113E45804F00F041461BB
:1002D00011620468E358C3F30723D3614FF4DC735E
:1002E000046803EB0113E45814750468E458240A05
:1002F00054750468E458240C94750468E3581B0E84
:10030000D3754FF4DE73046803EB0113E4581476DD
:100310000468E458240A54760468E458240C94765B
:100320000468E3581B0ED3760368202289B11A6152
:100330000268536923F05003536190F83C20222A4D
:100340000DD0322A0BD00FE0426BA5E7640D14608C
:10035000B0E7DA600268536923F00A03ECE7026849
:10036000536923F40F43536112220123002990F8AB
:100370003C1006D0522915D0622916D0722906D118
:1003800015E042290ED0622908D0722908D080F8E1
:100390003C3000BF00F00CFB002010BD322107E014
:1003A000522105E080F83C20F4E7222100E04221C0
:1003B00080F83C10EEE700001348124940F2231287
:1003C00001630A60026B00219160026BD160026BD5
:1003D00008211161026B43211175026B4121517596
:1003E000026B4E219175026B2021D175026B542155
:1003F0001176036B45225A76036B53229A76006B73
:10040000C1767047A40500201C000020014800F0C0
:1004100075BC00006001002070470000F0B50C7D45
:10042000012303FA04F20468D4F800524E6A25F45A
:100430007C5503EB06231D43C4F800520368D3F830
:100440001C429443C3F81C424FF41073CD691C1D29
:10045000BDB90568D5F80C629643C5F80C628E8963
:100460004D684F6966F31F45066803EBC707F551F2
:100470000E890D684F6966F31F45066804EBC707D0
:10048000F551CD69012D17D10568D5F80C621643D9
:10049000C5F80C620E884D684F6966F31F45066803
:1004A00003EBC703F5500D89CB684E6965F31F4315
:1004B000056804EBC6042B518B69002B0368D3F845
:1004C000044211D054EA0204C3F804420B69002B21
:1004D0000368D3F8144209D054EA0204C3F8144262
:1004E000096A012904D009E09443EDE79443F5E754
:1004F0000168D1F81C321343C1F81C320068D0F8EF
:10050000001221F00101C0F800120020F0BD704778
:100510002DE9F041044600680026C168C1F30013CC
:100520004169C1F3C002102113B10AB14E01C1608B
:10053000206802694369C2F30012C3F380131AB141
:1005400013B146F480660161216848694FF00105E6
:10055000C043C0074ED18A687648904323D000201C
:100560008B68754A9A4320D000228F68734BBB4337
:100570001DD00023104318433CD088688A68C0F31C
:1005800040008B68C2F3402203F00103104318437C
:1005900029D04A69204622F001024A6194F83C10B1
:1005A000122906D00AE00120DAE70122DDE7012363
:1005B000E0E701684A6922F40F424A6190F83C1072
:1005C000422908D0522908D0722908D080F83C501E
:1005D00000F0FAFA09E0222102E0322100E0622173
:1005E00080F83C10F4E746F4006620688168544ABD
:1005F000114381602168C868496910F0030FC1F395
:10060000400104D019B100212046FFF741FE2168C6
:100610000869496910F0030FC1F3001104D019B142
:1006200001212046FFF734FE206C3043206420680F
:100630008169426911F0010F4369C2F30022C3F3DB
:10064000C03305D022B11BB1216C41F001012164FE
:100650008169C1F340034169C1F340224169C1F39B
:10066000C0312BB122B119B1216C41F002012164DA
:100670008169C1F3800341694269C1F38021C2F3FA
:10068000C0322BB121B11AB1216C41F004012164B7
:10069000816911F0700F08D000224169C1F3C023B5
:1006A0004169C1F3C03112B121E00122F5E7F3B194
:1006B000E9B1816901F0700140292FD006DC1029D1
:1006C00009D020290BD030290DD123E0502929D081
:1006D000602908D12AE0216C41F0080102E0216C78
:1006E00041F010012164816921F070018161206C69
:1006F00000280DD021680420486084F83C50206810
:10070000416948F65B72914341612046FFF7FFFE65
:10071000BDE8F081216C41F02001E3E7216C41F05C
:100720004001DFE7216C41F08001DBE7216C41F4FF
:100730008071D7E7010000040001000800000110EB
:10074000090501002DE9F04104004FF0000504D037
:1007500094F83C00002618B107E00120BDE8F081C4
:1007600084F83D60204600F083F8022084F83C00C5
:100770002068016821F0020101602068016841F0F1
:100780000101016000F008FD07464FF0030804E096
:1007900000F002FDC01B0A2853D820684068C0073B
:1007A000F6D021684868C00758D0A069012801D157
:1007B00045F08005E06901282FD025F04000226A2D
:1007C000012A2DD020F02000626A012A2BD020F0CF
:1007D0001000A26A012A29D020F00800E26A012A4A
:1007E00027D020F004000A6822F0FC0202430A60CD
:1007F000D4E902010843D4E90412114308436168B3
:10080000491E08432168C8612068016821F0010180
:10081000016000F0C1FC054618E045F04000CEE75D
:1008200040F02000D0E740F01000D2E740F0080090
:10083000D4E740F00400D6E700F0AEFC401B0A28E5
:1008400004D904F83C8F0320667087E7206840686D
:10085000C007F1D120684068C00703D0042084F8A5
:100860003C007AE72664012084F83C00002075E70C
:1008700010B500681D4986B0884234D11C48C16952
:1008800041F00071C161C0691A4C00F00070049021
:10089000012000900020019002906946204600F05F
:1008A00093FB0221032000910191039069462046A9
:1008B00000F08AFB1048416821F4C0414160416862
:1008C00041F4C041416000221146142000F0E6FCD2
:1008D000142000F0D7FC00221146162000F0DEFCA8
:1008E000162000F0CFFC06B010BD000000640040F0
:1008F00000100240001401400000014030B511B169
:10090000012925D010E090F83C20222A28D090F828
:100910003C20422A24D000BF90F83C20622A1FD0FD
:1009200090F83C20722A1BD090F83D20012A17D065
:10093000012280F83D20622290F83C40722389B168
:10094000122C19D0222C18D0422C19D0322214E0AB
:1009500090F83C20322A03D090F83C20522ADBD178
:10096000022030BD122C05D0322C06D0522C07D0DC
:10097000222202E0422200E0522280F83C2001E0E4
:1009800080F83C300022026403685C6948F6017517
:100990002C435C6180F83D2000680029416904D047
:1009A00041F050014161002030BD41F00A01F9E7FA
:1009B00000680F49884211D10E48416B08688205D2
:1009C0000CD50A7D012A09D1497D552906D10A494C
:1009D00001EB4001A1F58051A1F8000C044814304E
:1009E000016841F00201016000210248FFF786BF63
:1009F000006400401C000020E40500202DE9F05FA9
:100A00000E46016804468868400105D488680001E4
:100A100002D48868C0006FD594F83D0001280CD03E
:100A2000012784F83D7094F83C00222808D0322831
:100A300008D062280ED0122005E00220BDE8F09F09
:100A4000422000E0522084F83C008868400103D531
:100A5000002507E07220F6E78868000101D501252E
:100A600000E002254FF4C07000EB05100A5802F0B8
:100A700001020A50216B8A68EAB3D4F800C05CF81E
:100A800000301343CA68496842EAC1010B434CF87D
:100A90000030216B0A7C02F00F020A614FF4C27130
:100AA000226801EB0511535823F00F0353502268BD
:100AB0005358D4F830C0DCF810C043EA0C0353504C
:100AC000216B4FF4C47303EB05130A7DD1F81510A5
:100AD00042EA01222168CA50216B4FF4C67303EB2E
:100AE00005130A7ED1F8191042EA01222168CA5082
:100AF00021680A5801E00DE05AE042F001020A5074
:100B000000F04AFB81464FF00008DFF8B0A0DFF8A4
:100B1000B0B026E022681358D1F80CC0098843EA27
:100B20000C0343EA41511150B3E7701C19D02EB1A8
:100B300000F032FBA0EB0900B04212D9032084F888
:100B40003C004DB1012D09D04FF4000021688860B0
:100B500084F83D80032071E78020F7E74FF40040E0
:100B6000F4E7ADB12068012D816816D0154888439F
:100B70000028DAD194F83C00422811D0522811D034
:100B8000722813D084F83C7084F83D80002055E72B
:100B9000206881682AEA0100EAE72BEA0100E7E71A
:100BA000222000E0322084F83C00EDE76220FAE7E2
:100BB000042084F83C00012040E70000010000040C
:100BC0000001000800000110704700002DE9F05FEF
:100BD00090F821100024022903D00421816301240C
:100BE00085E001680A6822F00E020A6001680A685E
:100BF00022F001020A603F4E3E4FB215DFF8F4C00A
:100C0000DFF8F090DFF8ECA0DFF8E8B0DFF8E4E020
:100C10000168783F13011502ACF1640CA9F1500989
:100C2000AAF13C0AABF1280BAEF1140E4FF4801878
:100C3000B14227D9B9420ED0614512D049451DD0E5
:100C4000514518D0594518D0714501D1424615E09B
:100C5000294EB14201D1012210E0274E1436B14293
:100C600001D110220AE0244E2836B14206D0224A91
:100C70003C32914201D11A4600E02A461E49091F22
:100C80000A602BE0B94213D0614517D0494522D004
:100C900051451DD059451DD0714501D142461AE03C
:100CA000B14202D14FF0807215E0134EB14201D132
:100CB000012210E0104E1436B14201D110220AE098
:100CC0000D4E2836B14206D00B4A3C32914201D13A
:100CD0001A4600E02A46074980394A60012180F817
:100CE0002110002180F82010416B01B18847204677
:100CF000BDE8F09F80000240080402402DE9F05F4B
:100D0000C16B0A6801680B68046C4FF0040808FAAC
:100D100004F8844D844E854FDFF814C2DFF8149236
:100D2000DFF814A2DFF814B2DFF814E218EA020FB9
:100D300065D05FEA437862D50A68920603D40A68F0
:100D400022F004020A60DFF8F0814FF4806201684B
:100D500008F1140813011402414524D9A9420DD009
:100D6000B1420FD0B9421AD0614515D0494515D0CE
:100D7000514501D1120312E0594501D104220EE080
:100D8000714501D140220AE06D4D1435A94206D0CB
:100D90006B4A2832914201D11A4600E02246674947
:100DA000091F0A6029E0A94213D0B14215D0B94207
:100DB00020D061451BD049451BD0514502D14FF48D
:100DC000800217E0414502D14FF0806212E05945A0
:100DD00001D104220EE0714501D140220AE0584DB4
:100DE0001435A94206D0564A2832914201D11A46FA
:100DF00000E022464B4908394A60C16A71E04FF071
:100E0000020808FA04F818EA020F70D05FEA837843
:100E10006DD50A68920606D40A6822F00A020A60B2
:100E2000012180F82110DFF810814FF40072016871
:100E300008F1140813011402414524D9A9420DD028
:100E4000B1420FD0B9421AD0614515D0494515D0ED
:100E5000514501D1120312E0594501D102220EE0A1
:100E6000714501D120220AE0354D1435A94206D042
:100E7000334A2832914201D11A4600E022462F49D6
:100E8000091F0A6029E0A94213D0B14215D0B94226
:100E900020D061451BD049451BD0514502D14FF4AC
:100EA000001217E0414502D14FF0007212E059459F
:100EB00001D102220EE0714501D120220AE0204D2D
:100EC0001435A94206D01E4A2832914201D11A4651
:100ED00000E02246134908394A60002180F82010BA
:100EE000816A00291CD0BDE8F05F0847FFE70825AC
:100EF000A540154214D01A0712D50A6822F00E0236
:100F00000A6090F84020C36B012101FA02F25A6096
:100F1000816380F82110002180F82010016BE0E748
:100F2000BDE8F09F080002401C0002403000024073
:100F300044000240580002406C0002400804024095
:100F40001C04024030B560B11C4A0368142193426E
:100F500009D21B4A1A44B2FBF1F189000164194914
:100F60000AE0012030BD154A52421A44B2FBF1F1A9
:100F70008900016411490839C163022180F82110F8
:100F80001A6843F6F0718A43F0E901142143D0E96D
:100F900002452C4321430469214344692143846968
:100FA000214311431960002141628162C1620163E2
:100FB0004163012242770177084630BD08040240B0
:100FC000F8FFFDBF000002402DE9F84FDFF890A1C7
:100FD00000220AF1040B144601274FF00F090BF110
:100FE000040E00BF0B6807FA04F52B40AB4274D126
:100FF000DFF870C14E68A6EB0C0866452BD00DDCFF
:10100000032E34D005DC36B3012E19D0022E2FD199
:101010001BE0112E16D0122E2AD119E0B8F5881F28
:1010200019D006DCB8F5803F15D0B8F5801F1FD168
:1010300011E0B8F5001F0ED0B8F5041F18D10AE072
:10104000CA6815E0CA68121D12E0CA6808320FE0CB
:10105000CA680C320CE08A682AB1012A4FF00802F3
:1010600003D0456104E0042202E0056100E00022B3
:10107000FF2B01D8064601E000F104064FEA840583
:1010800001D9A5F12005D6F800C009FA05F82CEA27
:10109000080C02FA05F54CEA050CC6F800C04D68CC
:1010A000ED0057D5304DAE6946F00106AE61AD6931
:1010B00024F0030605F0010500952C4D06EB050C08
:1010C000DCF80850A6074FEA167809FA08F6B54387
:1010D000274EB04202D1002610E03BE0254EB04240
:1010E00001D101260AE0244EB04201D1022605E0DA
:1010F000224EB04201D1032600E0042606FA08F68B
:101100002E43CCF808604D68DAF80060ED035546D0
:1011100001D51E4300E09E432E604D68DBF8006061
:10112000AD035D4601D51E4300E09E432E604D6831
:10113000DEF80060ED02754601D51E4300E09E43D7
:101140002E604D68AD020E4D2E6801D51E4300E0A5
:101150009E432E60641C102CFFF444AFBDE8F88F52
:101160000004014000001110001002400000014086
:1011700000080140000C0140001001400014014033
:101180000C040140C2684A40C26070470AB1016164
:1011900070470904FBE70000014800687047000041
:1011A0001800002002480168491C016070470000D7
:1011B00018000020074810B5016841F010010160D7
:1011C000032000F08BF8002000F006F800F018F87B
:1011D000002010BD0020024010B5044607484FF41F
:1011E0007A710068B0FBF1F000F09FFB002221460D
:1011F000501E00F053F8002010BD00000000002039
:101200001E4808B5816941F001018161806900F0E3
:1012100001000090032000F061F8002211466FF0F9
:101220000B0000F03BF8002211466FF00A0000F0BE
:1012300035F8002211466FF0090000F02FF8002267
:101240001146501F00F02AF800221146101F00F02E
:1012500025F800221146901E00F020F800221146C9
:10126000501E00F01BF80648416821F0E061416023
:10127000416841F00071416008BD0000001002406B
:101280000000014000F01F02012191404009800050
:1012900000F1E020C0F8001170470000F0B40E4BE0
:1012A0001B680C46C3F30223C3F10705042D00D9C4
:1012B0000425191D072901D2002300E0DB1E0126A9
:1012C00006FA05F1491E214099409E40761E1640BF
:1012D0003143F0BC00F032BF0CED00E0064900F0F5
:1012E000070208684FF6FF03184040EA0220034A4D
:1012F00010430860704700000CED00E00000FA05A4
:101300002DE9F047DFF83C8105460E46D8F800008D
:1013100000F00700B0420CD2D8F8001021F007010D
:101320003143C8F80010D8F8000000F00700B042C0
:1013300063D12878444C800705D56068A96820F0FF
:10134000F000084360602878C00745D0686801282D
:1013500016D02168022816D0890700294DDA616865
:1013600021F0030101436160FFF716FF696807463A
:1013700041F2883001290FD00229814619D027E097
:1013800021688903E9E78901E7E700BFFFF704FF68
:10139000C11B494501D918E081466068C0F381004E
:1013A0000128F3D118E000BFFFF7F6FEC11B494545
:1013B0000BD86068C0F381000228F5D10CE000BFB3
:1013C000FFF7EAFEC11B494502D90320BDE8F087BB
:1013D000606810F00C0FF3D1D8F80010404601F00F
:1013E0000701B1420BD9016821F0070131430160C7
:1013F000006800F00700B04201D00120E6E728783D
:10140000400705D56068E96820F4E0600843606043
:101410002878000706D56068296920F4605040EA02
:10142000C100606000F03CF86168084AC1F3031134
:10143000515CC840064908600020FFF7CDFE00203F
:10144000C4E700000020024000100240BC28000851
:1014500000000020014800687047000000000020E4
:101460000448054900684968044AC1F30221515CF7
:10147000C84070470000002000100240CC2800083F
:101480000448054900684968044AC1F3C221515C17
:10149000C84070470000002000100240CC2800081F
:1014A00010B51DA288B00FCA04AC84E80F001EA3BB
:1014B0000FCB8DE80F0020494B68204803F00C0249
:1014C000042A02D0082A02D01D4808B010BD04AA80
:1014D000C3F38344DB03125D1BD5CB6ACC6A03F0F4
:1014E0000F031DF80330E4030AD5CC6AC96AC4F3BC
:1014F0000314641CB0FBF4F0C1F30321891C4843BE
:10150000B0FBF3F09DF81D1050439142DDD140082F
:10151000DBE70C485043D8E700000405060708093C
:1015200000000000000D000001020304050607088A
:10153000090A0B0C0D0E0F100010024040787D01BF
:1015400000127A0000093D002DE9F84F04460078AA
:10155000EA4DC00748D06868C0F38100012807D071
:101560006868C0F38100022809D16868C00306D505
:101570002868800338D5A06800286FD034E0A068C0
:10158000B0F5803F0BD010B1B0F5A02F11D0286876
:1015900020F480302860286820F4802002E0286849
:1015A00040F480302860A06888B1FFF7F5FD06465A
:1015B00009E0286840F480202860F0E7FFF7ECFDA0
:1015C000801B642878D828688003F7D50CE0FFF7E3
:1015D000E3FD064605E000BFFFF7DEFD801B642843
:1015E000F0D828688003F7D42078C54E80074FF0E4
:1015F00001094FF000073CD5686810F00C0F07D0C8
:101600006868C0F38100022809D16868C00306D465
:101610002868800715D5606901281FD111E060692D
:10162000B8B1C6F80090FFF7B7FD804606E000BFEE
:10163000FFF7B2FDA0EB08000228C3D82868800796
:10164000F6D52868A16920F0F80040EAC1002860BA
:101650000FE03760FFF7A0FD804607E02DE100BFF7
:10166000FFF79AFDA0EB08000228ABD82868800796
:10167000F6D4207800072ED5A248E169E9B1C0F878
:101680000090FFF789FD804606E000BFFFF784FD6C
:10169000A0EB0800022895D8686A8007F6D59A481A
:1016A0004FF4FA510068B0FBF1F0009000BF0098D1
:1016B000411E0091FAD20EE0B0E00760FFF76CFD2A
:1016C000804605E0FFF768FDA0EB0800022887D8F8
:1016D000686A8007F6D42078400763D5E8694FF040
:1016E0000008C00009D4E86940F08050E861E8696A
:1016F0004FF0010800F08050009084480168C9054F
:1017000012D40168834641F480710160FFF744FD03
:10171000824605E0FFF740FDA0EB0A0064287DD873
:10172000DBF80000C005F5D5206901280AD008B112
:10173000052813D0286A20F001002862286A20F0CA
:10174000040002E0286A40F001002862206941F2AA
:10175000883B98B1FFF720FD82460BE0286A40F0F5
:1017600004002862EEE700BFFFF716FDA0EB0A01B8
:10177000594553D8286A8007F6D50CE0FFF70CFDD1
:10178000824605E0FFF708FDA0EB0A01594545D860
:10179000286A8007F6D4B8F1000F03D0E86920F07A
:1017A0008050E861E06AD0B36968C90307D5696809
:1017B000C1F38101022902D1E96AC9037DD402285B
:1017C00008D0E86A20F48030E862B766FFF7E4FCEE
:1017D00080463BE02868C00005D5E86A616B00F0F0
:1017E000F000884269D1B766FFF7D6FC804605E075
:1017F000FFF7D2FCA0EB0800642874D82868000129
:10180000F6D4E86A616B20F0F0000843E862E86A09
:10181000216B20F470600843E86201E063E018E0A7
:10182000C6F86890FFF7B8FC804605E0FFF7B4FC07
:10183000A0EB0800642856D828680001F6D508E017
:10184000FFF7AAFCA0EB080064284CD82868000128
:10185000F6D4206A90B36968C1F3810102294AD0A5
:101860000228376603D0FFF797FC04463EE0FFF7F7
:1018700093FC074605E000BFFFF78EFCC01B022863
:1018800031D828688001F7D4606AB0F5803F09D16B
:10189000E86A61680843E862E86AE16820F00F00DE
:1018A0000843E862D4E909010843696821F4741126
:1018B00008436860C6F8609001E01CE019E0FFF79B
:1018C0006BFC044605E000BFFFF766FC001B022826
:1018D00009D828688001F7D50BE000BFFFF75CFC52
:1018E000001B022802D90320BDE8F88F2868800178
:1018F000F4D40020F8E70120F6E7000000100240D1
:10190000000042428004424200000020007000407B
:101910004FF0E0210428086903D020F0040008619A
:10192000704740F00400FAE7704710B5401EB0F170
:10193000807F01D3012010BD4FF0E02460610F21B2
:10194000601700F0FBFB0020A06107202061002051
:1019500010BD10B5FFF7E8FF10BD7047704730B5F8
:1019600090F83C20012A20D0012280F83C2002235C
:1019700080F83D3003685C6824F070045C600368A4
:101980005C680D682C435C6003689C6824F08004EC
:101990009C6003689C6849680C439C6080F83D200B
:1019A000002180F83C10084630BD022030BD10B543
:1019B000040003D094F83D0010B107E0012010BDF1
:1019C000002084F83C00204600F00CF8022084F847
:1019D0003D00211D206800F041FC012084F83D00FD
:1019E000002010BD08B501681448B1F1804F14D033
:1019F000134A914220D1C16941F00401C161C0691B
:101A0000002200F00400009002211E20FFF746FC97
:101A10001E20BDE80840FFF735BCC16941F0010157
:101A2000C161C069002200F00100009001211C206A
:101A3000FFF734FC1C20ECE708BD0000001002405A
:101A4000000800400168CA6842F00102CA600068EC
:101A5000016841F0010101600020704770B5044643
:101A600090F83C00012817D0012584F83C50022052
:101A700084F83D002068826822F0770222F47F42D9
:101A800082600868502837D00DDC202859D005DC4A
:101A900088B3102841D151E0022070BD302853D0C6
:101AA00040283AD13FE060282ED070280BD0B0F506
:101AB000805F03D0B0F5005F2FD110E0206881680F
:101AC00021F0070115E0CB68D1E90121206800F081
:101AD00003FC2168886840F0770088601DE0CB68CF
:101AE000D1E90121206800F0F7FB2068816841F40A
:101AF0008041816011E01EE0CA684968206800F0FA
:101B0000FDFB5021206806E0CA684968206800F0A3
:101B100006FC6021206800F0E9FB84F83D500020BD
:101B200084F83C0070BDCA684968206800F0E6FB94
:101B300040212068EFE700212068ECE710212068B1
:101B4000E9E720212068E6E730212068E3E77047D5
:101B500070B50446006801694FF00005C943890764
:101B600015D4C168C943890711D4E91E0161012058
:101B70002077206880698007204602D0FFF7E7FFC2
:101B800004E000F098F8204600F096F825772068E9
:101B90000169C943490717D4C168C943490713D428
:101BA0006FF004010161022020772068806910F441
:101BB000407F204602D0FFF7CAFF04E000F07BF828
:101BC000204600F079F8257720680169C9430907A4
:101BD00016D4C168C943090712D46FF00801016126
:101BE000042020772068C0698007204602D0FFF7D4
:101BF000AEFF04E000F05FF8204600F05DF82577C6
:101C000020680169C943C90617D4C168C943C90618
:101C100013D46FF010010161082020772068C0699B
:101C200010F4407F204602D0FFF791FF04E000F05F
:101C300042F8204600F040F8257720680169C94342
:101C4000C90708D1C168C943C90704D1891E016108
:101C5000204600F033F820680169C943090609D419
:101C6000C168C943090605D46FF0800101612046AF
:101C7000FFF773FE20680169C943490609D4C168AA
:101C8000C943490605D46FF040010161204600F0C8
:101C90002FF820680169C94389060BD4C168C9437C
:101CA000890607D46FF0200101612046BDE870402D
:101CB000FFF754BE70BD70477047000002680120F6
:101CC0000949B2F1804F0AD0084B9A4206D101224D
:101CD00082F310884870002080F31088704701223A
:101CE00082F310880870F6E7150000200008004015
:101CF0007047704770B5026804461068D168536930
:101D000010F00F0F51D003F0010501F49076354328
:101D10005DD0C20705D0CA0503D5E26B42F00102CF
:101D2000E263420705D5DA0703D0E26B42F0020214
:101D3000E263820705D5DA0703D0E26B42F00402C2
:101D4000E263020705D5DA0703D0E26B42F008022E
:101D5000E263E26B002A34D0800604D5880602D5FF
:101D6000204600F004FB20684069E16BC0F380105E
:101D700001F008010143204624D000F0EAFA20686F
:101D8000416949061AD5416921F040014161606B02
:101D9000A0B11B494163606BFEF718FF002810D00B
:101DA000606B416BBDE87040084783060FD58B061A
:101DB0000DD52046BDE8704000F0D9BA2046FFF7A7
:101DC00098FF70BDFFF795FF0020E06370BD03062C
:101DD00006D50B0604D52046BDE8704000F0CABB0E
:101DE0004006F3D54806F1D5D168204621F04001E0
:101DF000D160202184F8391000F0E4F870BD0000B3
:101E00004323000870B5040004D094F8390000257D
:101E100010B106E0012070BD84F83850204600F073
:101E200023F8242084F839002068C16821F4005187
:101E3000C160204600F0E6FA2068016921F4904173
:101E400001612068416921F02A0141612068C1686F
:101E500041F40051C160E563202084F8390084F822
:101E60003A00002070BD0000F0B50646364F03680A
:101E70000025364802210322354C85B0BB423DD1B6
:101E8000C36943F40033C361C069324F00F40030CA
:101E900004902020CDE90001039269463846FFF7FF
:101EA00093F84020CDE90005694638460295FFF7D2
:101EB0008BF8606840F008006060284C264820607D
:101EC0001020C4E901058020C4E903056561A5610E
:101ED0002046E561FFF736F820B140F2051120A059
:101EE00000F081FB34630022114626206662FFF772
:101EF000D5F92620FFF7C6F905B0F0BD1F4EB34255
:101F0000FAD1C36943F48023C361C069039200F42A
:101F1000802004903015CDE90001194E6946304605
:101F2000FFF752F8F014CDE90005694630460295F6
:101F3000FFF74AF8606820F030006060606840F0A9
:101F400010006060D8E7000000440040001002402C
:101F500000000140001401408000024060010020A8
:101F60002E2E2F5372632F73746D3332663178784F
:101F70005F68616C5F6D73702E6300000048004005
:101F800000100140704790F83930202B18D1A9B1CA
:101F9000A2B190F83830012B12D001628284C28441
:101FA0000021C163212280F8392080F838100068B0
:101FB000C16841F08001C160002070470120704776
:101FC000022070477047FEE70E4810B50C490160CB
:101FD0000C21416000214FF480228160C0E903128E
:101FE0004FF4A002C0E90521C16101624162816232
:101FF000C162FEF7A7FB002800D0FEE710BD00007D
:10200000006400401C0000201E4810B5816986B0A5
:1020100041F040018161816901F0400104918169D1
:1020200041F004018161816901F004010491816939
:1020300041F010018161816901F010010491816911
:1020400041F02001816180690F4C00F02000049074
:1020500000224FF400512046FFF798F801224FF478
:1020600040412046FFF792F84FF460400090012075
:1020700001900220039069462046FEF7A5FF06B0B6
:1020800010BD0000001002400018014010B51348B8
:1020900086B04FF08041016041F61F410024C0E945
:1020A000011440F2F311C0E903148461FFF77FFCCF
:1020B00000B1FEE74FF48050009069460748FFF7F3
:1020C000CDFC00B1FEE7049404A904480594FFF791
:1020D00046FC002800D0FEE706B010BD60000020DE
:1020E00010B5144886B01249016041F61F41002422
:1020F000C0E9011444F61F61C0E903148461FFF7CD
:1021000056FC00B1FEE74FF4805000906946094844
:10211000FFF7A4FC00B1FEE7049404A90548059468
:10212000FFF71DFC002800D0FEE706B010BD000040
:1021300000080040A0000020FEE770470907090ED4
:10214000002806DA00F00F0000F1E02080F8141DEE
:10215000704700F1E02080F8001470477047704726
:1021600010B5FFF71FF8BDE81040FFF7F2BB000005
:1021700030B593B0012528040421CDE902010224E1
:10218000CDE908400095019005954FF4E010CDE9A8
:102190000A044FF4C0600C9040200D906846FFF791
:1021A000D3F900B1FEE70F20CDE90E0400204FF473
:1021B0008061CDE91001129002210EA8FFF7A0F86E
:1021C00000B1FEE7FFF746F94FF47A71B0FBF1F08A
:1021D000FFF7ABFB0420FFF79BFB044805670022D9
:1021E0001146501EFFF75AF813B030BD00004242AE
:1021F0001048016841F00101016041680E4A114038
:10220000416001680D4A11400160016821F480219C
:102210000160416821F4FE014160016821F0A05194
:1022200001604FF47F0181600021C1620449C00355
:1022300008607047001002400000FFF0FFFFF6FE4C
:1022400008ED00E00148FFF783BC000060000020BB
:102250000148FFF77DBC0000A0000020F0B5026837
:10226000194B1A4C1A4D1B4E4FF08047984207D01D
:10227000B84205D0A04203D0A84201D0B04204D158
:1022800022F0700C4A6842EA0C02984207D0B84229
:1022900005D0A04203D0A84201D0B04203D122F41D
:1022A0004074CA68224322F080044A6922430260D3
:1022B0008A68C2620A688262984201D10969016330
:1022C00001214161F0BD0000002C014000040040EC
:1022D00000080040000C004010B5846842EA032268
:1022E00024F47F440A432243826010BD826822F0B6
:1022F00070020A4342F007018160704710B5036A1B
:10230000046A24F001040462846924F0F00444EABD
:10231000021423F00A020A438461026210BD10B560
:10232000036A23F0100303628369046A23F4704391
:1023300043EA023224F0A00343EA01118261016200
:1023400010BD10B5406A0021C185C184FFF7D1FCE2
:1023500010BD0168CA6822F49072CA6001684A69B7
:1023600022F001024A61202180F83A10704710B52E
:1023700090F83A10222901D0022010BD8168B1F5F1
:10238000805F11D00169002901681FD0496801F000
:102390007F03816A4A1C82620B70C18D491E090449
:1023A000090CC18518D02BE00269816A002A0268F5
:1023B000526805D0D2B20A80816A491C8162ECE77A
:1023C000C2F308020A80816A891CF7E74A68816AB9
:1023D0004B1C83620A70E0E70168CA6822F02002A1
:1023E000CA600168CA6822F48072CA6001684A69DA
:1023F00022F001024A61202180F83A10FFF7C2FD65
:10240000002010BD2DE9F041044600680169E26832
:1024100021F44051114301612169A06808436169B9
:1024200008432168CA6841F20C639A430243CA60B8
:1024300020684169A26921F44071114341614C490E
:1024400020686425322688423CD1FFF719F800EB5A
:10245000C00101EB001061688900B0FBF1F7FFF7E4
:102460000FF800EBC00101EB00106168B046890075
:10247000B0FBF1F0B0FBF5F06FF01801484307EB4B
:10248000800106EB0110B0FBF5F000F0F006FEF75E
:10249000F7FF00EBC00101EB001061688900B0FBA1
:1024A000F1F0B0FBF5F006EB0016FEF7E9FF00EBEC
:1024B000C00101EB001061688900B0FBF1F7FEF785
:1024C000DFFF3BE0FEF7CCFF00EBC00101EB0010AB
:1024D00061688900B0FBF1F7FEF7C2FF00EBC001B5
:1024E00001EB00106168B0468900B0FBF1F0B0FB71
:1024F000F5F06FF01801484307EB800106EB01107F
:10250000B0FBF5F000F0F006FEF7AAFF00EBC0010B
:1025100001EB001061688900B0FBF1F0B0FBF5F051
:1025200006EB0016FEF79CFF00EBC00101EB00106C
:1025300061688900B0FBF1F7FEF792FF00EBC00184
:1025400001EB001061688900B0FBF1F0B0FBF5F021
:102550006FF01801484307EB800108EB0110B0FB56
:10256000F5F0216800F00F0030448860BDE8F0818C
:102570000038014090F83910212901D0022070471D
:102580008168B1F5805F016A0BD04A1C0262026863
:1025900009785160C18C491E0904090CC1840ED010
:1025A00017E009880268C1F3080151600169002938
:1025B000016A02D0491C0162ECE7891CFBE7016853
:1025C000CA6822F08002CA600068C16841F0400118
:1025D000C1600020704700000148FFF78BBB00007E
:1025E000E0000020FEE7FEE702E008C8121F08C175
:1025F000002AFAD170477047002001E001C1121F84
:10260000002AFBD17047000070B5124C0688049D6B
:1026100024F8546F8078A0701888A4F80300987884
:1026200060710C4C5434A271E1710822257221466C
:10263000500100F03BF80822E11C40F2011000F0CC
:1026400035F80822A11DBDE870404FF4817000F0FC
:102650002DB80000A405002008B500F073F800288C
:102660000BD000F057F8002000900448406800F1BB
:102670000A03427A017AFFF7C7FF08BD0400002071
:1026800070B5094C4FF4007040F20A2520800649CD
:102690000822083180B200F009F82088401C80B27E
:1026A0002080A842F3D370BD0400002010B540F292
:1026B000FF73984200D31846082A00D30822134B10
:1026C0001C6B20601C6B087820751C6B487860754B
:1026D0001C6B8878A0751C6BC878E0751C6B08793A
:1026E00020761C6B487960761C6B8879A076C87957
:1026F000196BC876186B0A2102611846FEF77EF93D
:102700000348016841F00201016010BD1C00002077
:1027100014640040012080F31088034900200870F1
:1027200080F310887047000015000020012080F31E
:10273000108803490020487080F31088704700001B
:1027400015000020012080F3108803480021007844
:1027500081F310887047000015000020012080F3ED
:10276000108803480021407881F3108870470000EA
:102770001500002010B5FFF7F1FF002814D04FF42A
:1027800000510A48FEF7FEFCFFF7D0FF0020084981
:10279000024600BF21F81020401CC0B20A28F9D31D
:1027A000BDE81040FFF76CBF10BD000000180140ED
:1027B000E405002008B5FEF7FDFCFFF7D9FCFFF7A4
:1027C00023FC2348416941F0010141614069002235
:1027D00000F00100009011461120FEF75FFD11206E
:1027E000FEF750FDFFF7F0FB1B481A49002401607B
:1027F0004FF41651C0E901140821C460C0E9044136
:102800008461C461FFF7FEFA00B1FEE7FFF73EFC0A
:10281000FFF766FC10481149403801604FF4E13180
:10282000C0E901140C21C460C0E904418461C461A1
:10283000FFF7E8FA00B1FEE700F02EF800F01EF80E
:1028400000F00EF8FFF708FFFFF794FFFAE700002B
:1028500000100240004800402001002000440040D9
:1028600010B5FDF7A9FDFDF7C1FCBDE81040002142
:102870000148FEF743B800001C00002010B50448D2
:10288000FFF7E0F8BDE810400248FFF7DBB80000B2
:1028900060000020A000002005480068C16841F4E5
:1028A0000051C160012203490348FFF76CBB0000DF
:1028B0002001002014000020E000002000000000A3
:1028C00000000000010203040607080900000000E0
:1028D00001020304F4280008000000201C0000008E
:1028E000E8250008102900081C000020EC09000061
:1028F000F825000800A24A0400020000A4010020FC
:102900000055000000000000000000000000000072
:04000005080001519D
:00000001FF
