:020000040800F2
:10000000E804002045010008C3180008571700083D
:10001000C11800088D010008B91A0008000000008E
:10002000000000000000000000000000E7180008C9
:10003000A903000800000000E5180008E9180008FE
:100040005F0100085F0100085F0100085F01000810
:100050005F0100085F0100085F0100085F01000800
:100060005F0100085F0100085F0100085F010008F0
:100070005F0100085F0100085F0100085F010008E0
:100080005F0100085F0100085F0100085F010008D0
:10009000AD1A00085F0100085F0100085F01000859
:1000A0005F0100085F0100085F0100085F010008B0
:1000B0005F0100085F0100085F0100085F010008A0
:1000C0005F0100085F0100085F0100085F01000890
:1000D0005F0100085F0100085F0100085F01000880
:1000E0005F0100085F0100085F0100085F01000870
:1000F0005F0100085F0100085F0100085F01000860
:100100005F0100085F010008A91900085F010008ED
:100110005F0100085F0100085F0100085F0100083F
:100120005F0100085F0100085F0100085F0100082F
:10013000DFF80CD000F018F800480047ED1B00086D
:10014000E80400200648804706480047FEE7FEE72F
:10015000FEE7FEE7FEE7FEE7FEE7FEE7FEE7FEE777
:100160006119000831010008064C074D06E0E068FF
:1001700040F0010394E8070098471034AC42F6D3EE
:10018000FFF7DAFF9C1C0008BC1C0008FEE700001B
:10019000F0B51E4B8DB00ECB8DE80E0000216A46E7
:1001A00001F5807342F82130491C89B20329F7D345
:1001B00008A90023012481E81900009803254001C3
:1001C000CDE90303009E40F2FF7118467FEA06075F
:1001D00032F82060401C7E40B6B2314080B2A84266
:1001E000F6D3480105900220CDE906030E20CDE9A3
:1001F0000B4003A9064800F0D9F8002803D04B2192
:1002000004A001F05AFC0DB0F0BD0000801C0008F5
:10021000200000202E2E5C757365725F66696C6528
:100220005C757365725F63616E2E630010B50029A3
:1002300058D0826B4FF4D873046803EB0113E45871
:1002400014F0040494600468E4584DD0E408546049
:100250000468E35803F00203D3604FF4DA730468D0
:1002600003EB0113E45804F00F04146111620468F5
:10027000E358C3F30723D3614FF4DC73046803EB43
:100280000113E45814750468E458240A547504688A
:10029000E458240C94750468E3581B0ED3754FF48E
:1002A000DE73046803EB0113E45814760468E45821
:1002B000240A54760468E458240C94760468E358BD
:1002C0001B0ED3760368202289B11A610268536934
:1002D00023F05003536190F83C20222A0DD0322A9B
:1002E0000BD00FE0426BA5E7640D1460B0E7DA6055
:1002F0000268536923F00A03ECE70268536923F4A8
:100300000F43536112220123002990F83C1006D0BC
:10031000522915D0622916D0722906D115E042293A
:100320000ED0622908D0722908D080F83C3000BF76
:1003300000F0F4FA002010BD322107E0522105E060
:1003400080F83C20F4E7222100E0422180F83C10B4
:10035000EEE7000013481249062201630A60026BAF
:1003600000219160026BD160026B08211161026B68
:1003700043211175026B41215175026B4E2191751C
:10038000026B2021D175026B49211176026B53213A
:100390005176026B4F219176006B4B21C1767047ED
:1003A000A40000202000002070470000F0B50C7D64
:1003B000012303FA04F20468D4F800524E6A25F4CB
:1003C0007C5503EB06231D43C4F800520368D3F8A1
:1003D0001C429443C3F81C424FF41073CD691C1D9A
:1003E000BDB90568D5F80C629643C5F80C628E89D4
:1003F0004D684F6966F31F45066803EBC707F55163
:100400000E890D684F6966F31F45066804EBC70740
:10041000F551CD69012D17D10568D5F80C62164349
:10042000C5F80C620E884D684F6966F31F45066873
:1004300003EBC703F5500D89CB684E6965F31F4385
:10044000056804EBC6042B518B69002B0368D3F8B5
:10045000044211D054EA0204C3F804420B69002B91
:100460000368D3F8144209D054EA0204C3F81442D2
:10047000096A012904D009E09443EDE79443F5E7C4
:100480000168D1F81C321343C1F81C320068D0F85F
:10049000001221F00101C0F800120020F0BD7047E9
:1004A0002DE9F041044600680026C168C1F300133D
:1004B0004169C1F3C002102113B10AB14E01C160FC
:1004C000206802694369C2F30012C3F380131AB1B2
:1004D00013B146F480660161216848694FF0010557
:1004E000C043C0074ED18A687648904323D000208D
:1004F0008B68754A9A4320D000228F68734BBB43A8
:100500001DD00023104318433CD088688A68C0F38C
:1005100040008B68C2F3402203F0010310431843EC
:1005200029D04A69204622F001024A6194F83C1021
:10053000122906D00AE00120DAE70122DDE70123D3
:10054000E0E701684A6922F40F424A6190F83C10E2
:10055000422908D0522908D0722908D080F83C508E
:1005600000F012FB09E0222102E0322100E06221CA
:1005700080F83C10F4E746F4006620688168544A2D
:10058000114381602168C868496910F0030FC1F305
:10059000400104D019B100212046FFF747FE216831
:1005A0000869496910F0030FC1F3001104D019B1B3
:1005B00001212046FFF73AFE206C3043206420687A
:1005C0008169426911F0010F4369C2F30022C3F34C
:1005D000C03305D022B11BB1216C41F0010121646F
:1005E0008169C1F340034169C1F340224169C1F30C
:1005F000C0312BB122B119B1216C41F0020121644B
:100600008169C1F3800341694269C1F38021C2F36A
:10061000C0322BB121B11AB1216C41F00401216427
:10062000816911F0700F08D000224169C1F3C02325
:100630004169C1F3C03112B121E00122F5E7F3B104
:10064000E9B1816901F0700140292FD006DC102941
:1006500009D020290BD030290DD123E0502929D0F1
:10066000602908D12AE0216C41F0080102E0216CE8
:1006700041F010012164816921F070018161206CD9
:1006800000280DD021680420486084F83C50206880
:10069000416948F65B72914341612046FFF7FFFED6
:1006A000BDE8F081216C41F02001E3E7216C41F0CD
:1006B0004001DFE7216C41F08001DBE7216C41F470
:1006C0008071D7E70100000400010008000001105C
:1006D000090501002DE9F04104004FF0000504D0A8
:1006E00094F83C00002618B107E00120BDE8F08135
:1006F00084F83D60204600F083F8022084F83C0036
:100700002068016821F0020101602068016841F061
:100710000101016000F04AFB07464FF0030804E0C6
:1007200000F044FBC01B0A2853D820684068C0076B
:10073000F6D021684868C00758D0A069012801D1C7
:1007400045F08005E06901282FD025F04000226A9D
:10075000012A2DD020F02000626A012A2BD020F03F
:100760001000A26A012A29D020F00800E26A012ABA
:1007700027D020F004000A6822F0FC0202430A603D
:10078000D4E902010843D4E9041211430843616823
:10079000491E08432168C8612068016821F00101F1
:1007A000016000F003FB054618E045F04000CEE78D
:1007B00040F02000D0E740F01000D2E740F0080001
:1007C000D4E740F00400D6E700F0F0FA401B0A2816
:1007D00004D904F83C8F0320667087E720684068DE
:1007E000C007F1D120684068C00703D0042084F816
:1007F0003C007AE72664012084F83C00002075E77D
:1008000010B50068154986B0884225D11448C169E1
:1008100041F00071C161C069124C00F00070049099
:100820004FF400600090002001900290694620463D
:1008300000F0BAF9A0140090022001900320039068
:100840006946204600F0B0F900221146142000F05D
:100850002FFB142000F020FB06B010BD0064004008
:10086000001002400008014030B511B1012925D027
:1008700010E090F83C20222A28D090F83C20422A10
:1008800024D000BF90F83C20622A1FD090F83C2072
:10089000722A1BD090F83D20012A17D0012280F83F
:1008A0003D20622290F83C40722389B1122C19D06D
:1008B000222C18D0422C19D0322214E090F83C207F
:1008C000322A03D090F83C20522ADBD1022030BDDE
:1008D000122C05D0322C06D0522C07D0222202E056
:1008E000422200E0522280F83C2001E080F83C30B7
:1008F0000022026403685C6948F601752C435C6160
:1009000080F83D2000680029416904D041F0500181
:100910004161002030BD41F00A01F9E770B505469C
:100920002249406B0B78026803F500739A4209D1A3
:10093000017D39B9407D552804D108221C4918464B
:1009400001F0CCF8686B1A4C1A4E00680C3CB0F5FC
:10095000807F06D10821304600F01FFA2068401C35
:100960002060686B0068A0F58071013906D1102104
:10097000304600F012FA6068401C6060686B0068E6
:10098000B0F5817F06D12021304600F006FAA0683C
:10099000401CA0600848016841F00201016028463F
:1009A000BDE870400021FFF75FBF00001400002089
:1009B0000C00002000180140146400402DE9F05F95
:1009C0000E46016804468868400105D48868000125
:1009D00002D48868C0006FD594F83D0001280CD07F
:1009E000012784F83D7094F83C00222808D0322872
:1009F00008D062280ED0122005E00220BDE8F09F4A
:100A0000422000E0522084F83C008868400103D571
:100A1000002507E07220F6E78868000101D501256E
:100A200000E002254FF4C07000EB05100A5802F0F8
:100A300001020A50216B8A68EAB3D4F800C05CF85E
:100A400000301343CA68496842EAC1010B434CF8BD
:100A50000030216B0A7C02F00F020A614FF4C27170
:100A6000226801EB0511535823F00F0353502268FD
:100A70005358D4F830C0DCF810C043EA0C0353508C
:100A8000216B4FF4C47303EB05130A7DD1F81510E5
:100A900042EA01222168CA50216B4FF4C67303EB6E
:100AA00005130A7ED1F8191042EA01222168CA50C2
:100AB00021680A5801E00DE05AE042F001020A50B4
:100AC00000F074F981464FF00008DFF8B0A0DFF8BD
:100AD000B0B026E022681358D1F80CC0098843EA68
:100AE0000C0343EA41511150B3E7701C19D02EB1E9
:100AF00000F05CF9A0EB0900B04212D9032084F8A1
:100B00003C004DB1012D09D04FF4000021688860F0
:100B100084F83D80032071E78020F7E74FF4004020
:100B2000F4E7ADB12068012D816816D015488843DF
:100B30000028DAD194F83C00422811D0522811D074
:100B4000722813D084F83C7084F83D80002055E76B
:100B5000206881682AEA0100EAE72BEA0100E7E75A
:100B6000222000E0322084F83C00EDE76220FAE722
:100B7000042084F83C00012040E70000010000044C
:100B80000001000800000110704731B500F00EF9B7
:100B9000009C0546601C00D0641C00F007F9401B57
:100BA000A042FAD338BD00002DE9F84FDFF8B8A114
:100BB00000220AF1040B144601274FF00F090BF134
:100BC000040E00BF0B6807FA04F52B40AB4274D14A
:100BD000DFF898C14E68A6EB0C0866452BD00DDCFB
:100BE000032E34D005DC36B3012E19D0022E2FD1BE
:100BF0001BE0112E16D0122E2AD119E0B8F5881F4D
:100C000019D006DCB8F5803F15D0B8F5801F1FD18C
:100C100011E0B8F5001F0ED0B8F5041F18D10AE096
:100C2000CA6815E0CA68121D12E0CA6808320FE0EF
:100C3000CA680C320CE08A682AB1012A4FF0080217
:100C400003D0456104E0042202E0056100E00022D7
:100C5000FF2B01D8064601E000F104064FEA8405A7
:100C600001D9A5F12005D6F800C009FA05F82CEA4B
:100C7000080C02FA05F54CEA050CC6F800C04D68F0
:100C8000ED006AD53A4DAE6946F00106AE61AD6938
:100C900024F0030605F001050095364D06EB050C22
:100CA000DCF80850A6074FEA167809FA08F6B543AB
:100CB000314EB04202D100261AE04EE02F4EB04233
:100CC00001D1012614E02E4EB04201D102260FE0E0
:100CD0002C4EB04201D103260AE02B4EB04201D186
:100CE000042605E0294EB04201D1052600E0062683
:100CF00006FA08F62E43CCF808604D68DAF8006072
:100D0000ED03554601D51E4300E09E432E604D681D
:100D1000AD0305D5DBF800601E43CBF8006004E0AE
:100D2000DBF800509D43CBF800504D68DEF80060C2
:100D3000ED02754601D51E4300E09E432E604D68CE
:100D4000AD0205D5084D0C352E681E432E6004E01B
:100D5000054E0C3635689D433560641C102CFFF43D
:100D600031AFBDE8F88F0000000401400000111011
:100D7000001002400000014000080140000C01404A
:100D8000001001400014014000180140001C014007
:100D90008068084000D001207047C2684A40C260A5
:100DA00070470AB1016170470904FBE70148006818
:100DB000704700001800002002480168491C0160CB
:100DC0007047000018000020074810B5016841F086
:100DD00010010160032000F08BF8002000F006F8FD
:100DE00000F018F8002010BD0020024010B50446A5
:100DF00007484FF47A710068B0FBF1F000F0FFFA99
:100E000000222146501E00F053F8002010BD0000C3
:100E10001C0000201E4808B5816941F00101816174
:100E2000806900F001000090032000F061F80022CA
:100E300011466FF00B0000F03BF8002211466FF0F6
:100E40000A0000F035F8002211466FF0090000F0AA
:100E50002FF800221146501F00F02AF800221146F8
:100E6000101F00F025F800221146901E00F020F817
:100E700000221146501E00F01BF80648416821F080
:100E8000E0614160416841F00071416008BD0000CF
:100E9000001002400000014000F01F0201219140BB
:100EA0004009800000F1E020C0F800117047000008
:100EB000F0B40E4B1B680C46C3F30223C3F10705C5
:100EC000042D00D90425191D072901D2002300E0B3
:100ED000DB1E012606FA05F1491E214099409E407D
:100EE000761E16403143F0BC00F0ECBC0CED00E087
:100EF000064900F0070208684FF6FF03184040EA71
:100F00000220034A10430860704700000CED00E027
:100F10000000FA052DE9F047DFF83C8105460E4652
:100F2000D8F8000000F00700B0420CD2D8F800104A
:100F300021F007013143C8F80010D8F8000000F094
:100F40000700B04263D12878444C800705D560681B
:100F5000A96820F0F000084360602878C00745D0F9
:100F60006868012816D02168022816D08907002950
:100F70004DDA616821F0030101436160FFF716FF5C
:100F80006968074641F2883001290FD0022981465D
:100F900019D027E021688903E9E78901E7E700BF65
:100FA000FFF704FFC11B494501D918E0814660687D
:100FB000C0F381000128F3D118E000BFFFF7F6FE6F
:100FC000C11B49450BD86068C0F381000228F5D1E8
:100FD0000CE000BFFFF7EAFEC11B494502D9032020
:100FE000BDE8F087606810F00C0FF3D1D8F800105E
:100FF000404601F00701B1420BD9016821F0070119
:1010000031430160006800F00700B04201D00120C8
:10101000E6E72878400705D56068E96820F4E060D5
:10102000084360602878000706D56068296920F4C5
:10103000605040EAC100606000F01CF86168084A36
:10104000C1F30311515CC840064908600020FFF756
:10105000CDFE0020C4E70000002002400010024046
:101060008C1C00081C00002001480068704700002C
:101070001C00002010B512A385B00FCB8DE80F0027
:1010800013A0144B006804905A68134802F00C0136
:1010900004290FD008290DD1C2F38344D2031DF8CF
:1010A000041009D55A6804ABC2F340429A5CB0FB05
:1010B000F2F0484305B010BD08484843FAE7000085
:1010C00002030405060708090A0B0C0D0E0F101089
:1010D000010200000010024000127A0000093D00E9
:1010E0002DE9F84F04460078B94DC00748D068682C
:1010F000C0F38100012807D06868C0F3810002288E
:1011000009D16868C00306D52868800338D56068AF
:1011100000286FD034E06068B0F5803F0BD010B18C
:10112000B0F5A02F11D0286820F4803028602868FE
:1011300020F4802002E0286840F480302860606855
:1011400088B1FFF733FE064609E0286840F48020A6
:101150002860F0E7FFF72AFE801B642875D828680E
:101160008003F7D50CE0FFF721FE064605E000BF3F
:10117000FFF71CFE801B6428F0D828688003F7D492
:101180002078944E80074FF001094FF000083BD5BE
:10119000686810F00C0F07D06868C0F3810002285F
:1011A00009D16868C00306D42868800714D520696F
:1011B00001281FD110E02069B0B1C6F80090FFF7F8
:1011C000F5FD074605E000BFFFF7F0FDC01B022854
:1011D000C4D828688007F7D52868616920F0F8002E
:1011E00040EAC10028600FE0C6F80080FFF7DEFD8E
:1011F000074606E0E9E000BFFFF7D8FDC01B022864
:1012000023D828688007F7D4207800072CD57248A7
:10121000A169D9B1C0F80090FFF7C8FD074604E006
:10122000FFF7C4FDC01B02280FD8686A8007F7D5F6
:101230006A484FF4FA510068B0FBF1F0009000BF2B
:101240000098411E0091FAD20EE080E0C0F80080C4
:10125000FFF7ACFD074604E0FFF7A8FDC01B02281E
:1012600075D8686A8007F7D42078400760D5E869A8
:101270000027C00008D4E86940F08050E861E869C0
:10128000012700F08050009055480168C90513D42B
:101290000168834641F480710160FFF787FD824653
:1012A00006E000BFFFF782FDA0EB0A0064284ED8DD
:1012B000DBF80000C005F5D5E06801280AD008B1C8
:1012C000052813D0286A20F001002862286A20F03F
:1012D000040002E0286A40F001002862E06841F260
:1012E000883B98B1FFF762FD82460BE0286A40F028
:1012F00004002862EEE700BFFFF758FDA0EB0A01EB
:1013000059455AD8286A8007F6D50CE0FFF74EFDFC
:10131000824605E0FFF74AFDA0EB0A0159454CD88B
:10132000286A8007F6D41FB1E86920F08050E86190
:10133000E06988B36968C1F38101022945D00228B8
:10134000C6F8608004D0FFF731FD044638E034E091
:10135000FFF72CFD074604E0FFF728FDC01B02281D
:101360002BD828688001F7D4206AB0F5803F05D1DA
:101370006868A16820F4003008436860D4E9080177
:101380000843696821F4741108436860C6F86090E6
:10139000FFF70CFD044606E015E000BFFFF706FD71
:1013A000001B022809D828688001F7D50BE000BF90
:1013B000FFF7FCFC001B022802D90320BDE8F88FD0
:1013C00028688001F4D40020F8E70120F6E7000047
:1013D0000010024000004242800442421C000020F3
:1013E000007000404FF0E0210428086903D020F08D
:1013F00004000861704740F00400FAE7704710B538
:10140000401EB0F1807F01D3012010BD4FF0E024D9
:1014100060610F21601700F055FA0020A0610720DD
:101420002061002010BD10B5FFF7E8FF10BD704728
:10143000704730B590F83C20012A20D0012280F876
:101440003C20022380F83D3003685C6824F070047F
:101450005C6003685C680D682C435C6003689C6892
:1014600024F080049C6003689C6849680C439C607D
:1014700080F83D20002180F83C10084630BD022055
:1014800030BD10B5040003D094F83D0010B107E062
:10149000012010BD002084F83C00204600F00CF82C
:1014A000022084F83D00211D206800F083FA01200D
:1014B00084F83D00002010BD08B500680B49884243
:1014C00012D10B48C16941F00801C161C069002215
:1014D00000F00800009001213220FFF7E9FCBDE890
:1014E00008403220FFF7D8BC08BD0000000C0040C7
:1014F0000010024070B5044690F83C00012817D057
:10150000012584F83C50022084F83D002068826860
:1015100022F0770222F47F4282600868502837D098
:101520000DDC202859D005DC88B3102841D151E0CA
:10153000022070BD302853D040283AD13FE06028C7
:101540002ED070280BD0B0F5805F03D0B0F5005FCF
:101550002FD110E02068816821F0070115E0CB68E9
:10156000D1E90121206800F06BFA2168886840F019
:10157000770088601DE0CB68D1E90121206800F088
:101580005FFA2068816841F48041816011E01EE0CB
:10159000CA684968206800F065FA5021206806E0B2
:1015A000CA684968206800F06EFA6021206800F07F
:1015B00051FA84F83D50002084F83C0070BDCA68A0
:1015C0004968206800F04EFA40212068EFE70021CA
:1015D0002068ECE710212068E9E720212068E6E791
:1015E00030212068E3E7704770B504460068016960
:1015F0004FF00005C943890715D4C168C94389075D
:1016000011D4E91E016101202077206880698007DC
:10161000204602D0FFF7E7FF04E000F098F82046EC
:1016200000F096F8257720680169C943490717D467
:10163000C168C943490713D46FF004010161022056
:1016400020772068806910F4407F204602D0FFF7A1
:10165000CAFF04E000F07BF8204600F079F8257717
:1016600020680169C943090716D4C168C94309073D
:1016700012D46FF008010161042020772068C0694E
:101680008007204602D0FFF7AEFF04E000F05FF8CD
:10169000204600F05DF8257720680169C943C90636
:1016A00017D4C168C943C90613D46FF01001016192
:1016B000082020772068C06910F4407F204602D0BF
:1016C000FFF791FF04E000F042F8204600F040F8F8
:1016D000257720680169C943C90708D1C168C94392
:1016E000C90704D1891E0161204600F032F8206844
:1016F0000169C943090609D4C168C943090605D46B
:101700006FF0800101612046FFF791FE20680169BA
:10171000C943490609D4C168C943490605D46FF0D5
:1017200040010161204600F015F820680169C943B5
:1017300089060BD4C168C943890607D46FF020011C
:1017400001612046BDE87040FFF772BE70BD704772
:10175000704770477047FEE70E4810B50C490160AE
:101760000C21416000214FF480228160C0E9031206
:101770004FF4A002C0E90521C161016241628162AA
:10178000C162FEF7A7FF002800D0FEE710BD0000F1
:101790000064004020000020F0B52E4885B081692B
:1017A00041F040018161816901F04001049181694A
:1017B00041F008018161816901F0080104918169AA
:1017C00041F020018161816901F02001049181696A
:1017D00041F010018161816901F01001049181697A
:1017E00041F00401816180691B4E00F00400049007
:1017F000012238213046FFF7D4FA184F0022022187
:101800003846FFF7CEFA38200125CDE9000502243D
:10181000694603943046FFF7C7F9CDE900456946AC
:1018200038460394FFF7C0F900244FF47040CDE927
:10183000000469460A480294FFF7B6F94FF4707045
:10184000CDE90004694607480294FFF7ADF905B0F9
:10185000F0BD00000010024000180140000C0140E3
:10186000001401400010014010B5144886B0124920
:10187000016041F61F410024C0E9011444F61F61D4
:10188000C0E903148461FFF7FCFD00B1FEE74FF4EB
:101890008050009069460948FFF72CFE00B1FEE732
:1018A000049404A905480594FFF7C3FD002800D05F
:1018B000FEE706B010BD0000000C004064000020F0
:1018C000FEE770470907090E002806DA00F00F004E
:1018D00000F1E02080F8141D704700F1E02080F84E
:1018E000001470477047704710B5FFF765FABDE800
:1018F0001040FFF798BD30B58FB001210804CDE945
:1019000000100024029402250491CDE907504FF401
:10191000E01009906846FFF7E3FB00B1FEE70F20F7
:10192000CDE90A054FF48060CDE90C4002210AA8F8
:101930000E94FFF7EFFA00B1FEE7FFF795FB4FF4C7
:101940007A71B0FBF1F0FFF75AFD0420FFF74AFD72
:1019500000221146501EFFF7ABFA0FB030BD000059
:101960000D48016841F00101016041680B4A1140D6
:10197000416001680A4A11400160016821F4802138
:101980000160416821F4FE0141604FF41F01816054
:101990000449C00308607047001002400000FFF8CF
:1019A000FFFFF6FE08ED00E00148FFF71DBE000056
:1019B00064000020F0B502681C4B1D4D1D4E1E4FEB
:1019C0001E4C4FF0804C984209D0A04207D0604591
:1019D00005D0A84203D0B04201D0B84204D122F0D1
:1019E000700E4A6842EA0E02984209D0A04207D01F
:1019F000604505D0A84203D0B04201D0B84203D11F
:101A000022F44075CA682A4322F080054A692A43B5
:101A100002608A68C2620A688262984201D0A0426B
:101A200001D10969016301214161F0BD002C014030
:101A30000004004000080040000C00400034014059
:101A400010B5846842EA032224F47F440A43224307
:101A5000826010BD826822F070020A4342F00701E2
:101A60008160704710B5036A046A24F001040462BF
:101A7000846924F0F00444EA021423F00A020A43C1
:101A80008461026210BD10B5036A23F01003036283
:101A90008369046A23F4704343EA023224F0A0030A
:101AA00043EA01118261016210BD00000148FEF7A6
:101AB000F7BC000020000020FEE7FEE702E008C8B7
:101AC000121F08C1002AFAD170477047002001E0B8
:101AD00001C1121F002AFBD17047000010B540F26F
:101AE000FF73984200D31846082A00D30822134BEC
:101AF0001C6B20601C6B087820751C6B4878607527
:101B00001C6B8878A0751C6BC878E0751C6B087915
:101B100020761C6B487960761C6B8879A076C87932
:101B2000196BC876186B0A2102611846FEF746FF4A
:101B30000348016841F00201016010BD200000204F
:101B40001464004070B5264C0020264D20704FF4E0
:101B500080512846FFF71CF910B92078401C2070EE
:101B60004FF400512846FFF713F910B92078801C74
:101B700020704FF480412846FFF70AF910B9207809
:101B8000001D20704FF400412846FFF701F910B9FD
:101B9000207808302070144D40212846FFF7F8F8CF
:101BA00010B920780A30207080212846FFF7F0F81D
:101BB00010B92078143020704FF480712846FFF758
:101BC000E7F810B92078283020704FF400712846CB
:101BD000FFF7DEF8002802D120785030207070BD69
:101BE000140000200014014000100140FFF7ECF841
:101BF000FFF781FEFFF7D0FDFFF7AEFDFFF734FEE4
:101C0000FFF7A0FF00F00EF8054C4FF4FA75022123
:101C10002046FFF7C2F82846FEF7B7FFF7E70000B7
:101C2000000C014000B58BB0FEF794FB1148134A3D
:101C30001149007851630E210122CDE908210021CC
:101C4000400100F58040CDE90001CDE90201049199
:101C5000CDE90512694609480792FEF7A7FB012066
:101C6000FEF796FA0BB0002104485DF804EBFEF78E
:101C7000FBBD000014000020C00000202000002058
:101C8000000100000101000002010000000000004E
:101C9000000000000102030406070809BC1C00083C
:101CA0000000002020000000BC1A0008DC1C000816
:101CB00020000020C8040000CC1A0008000000002A
:101CC00000000000000000000155000000000000BE
:0C1CD000000000000000000000A24A0418
:0400000508000131BD
:00000001FF
